:0400000080316228C1
:100008007E14803100308600003087002000911D6A
:100018000E280F285E282400151B132814281828DA
:10002800951F172818281D28151395131108F00176
:100038005E281419202821285D287008031D25280A
:100048002628282811084C287003031D2C282D2841
:1000580030281108F3004C2802307006031D35289B
:10006800362839281108F4004C2803307006031D7F
:100078003E283F2842281108F2004C280430700618
:10008800031D472848284C281108F1000130F500C5
:100098000530F6000030F7007008013EF800003027
:1000A80003180130F9008131362180317608F000DB
:1000B8005E281108200091117E1009008031642803
:1000C800F001F101F201F301F401F5012000B4019E
:1000D800B501B601B701B801B901BA01BB017E107B
:1000E8002000803177288331F42380318331FE2347
:1000F80080318331FA2380318331B92380318331D0
:10010800AD2380318331D02380318331C5238031C1
:100118008331E32380318331EC2380318B17200036
:100128000D0D0D0D0139B3000130B306B30CB30C3E
:100138000D0833067F3933068D0075080319A52885
:10014800A628932873088231572280317408823197
:1001580015228031720883313A2380317108833146
:10016800A123803120003B088231D4228031200035
:100178003A088231D422803120003708833107239E
:10018800803120003508833107238031200036086C
:1001980083310723803120003808833107238031D9
:1001A8002000390883310723803120003408833147
:1001B80007238031F5019328803162280034003408
:1001C8008034DD347F348B340B3401340034803494
:1001D80051347F344B346F340234003480349734D4
:1001E8007C34EA347C34033400348034233480345F
:1001F800AB340B34043400348034AF3480346B3483
:100208006F3405340034803469348334CA347C3420
:100218000634DD347F3400348034C734183407346E
:1002280051347F34003480345734323408349734AE
:100238007C3400348034DF34FE3409342334803491
:10024800003480341F3419340A34AF348034003415
:1002580080348F3433340B3469348334003480343D
:100268000734FF34FB01F91F3A293B294229F809D1
:10027800F909F80A0319F90A0130FB00F71F4529A3
:1002880046294B29F609F709F60A0319F70A7608E9
:10029800770403195029512978290130FA005B297C
:1002A8000130F635F70D890B55290130FA07F71F8C
:1002B8005E295F29542977087902031D6529760884
:1002C8007802031C682969296D297608F8027708DD
:1002D800F93B0130F736F60C890B6E290130FA022A
:1002E800031D772978295F297B0803197C297D2933
:1002F8008229F809F909F80A0319F90A7908F700AF
:100308007808F60008002000AD00AE012E08893EEE
:10031800840083300318013E85000008833195234B
:10032800813101302000AE070C302E02031C9D29BC
:100338009E298A290130AE002D08A700A8012708A8
:10034800A0002808A1000730A2000030A3008331D4
:1003580069238131E2302000A9008030AA002008FA
:100368002907AB0021082A3DAC002E082B07840082
:100378002C080318013E850000088331952381313C
:1003880001302000AE0707302E02031CCC29CD29EE
:10039800A02908002000AD00AE012E08DA3E840036
:1003A80083300318013E850000088331952381318D
:1003B80001302000AE0709302E02031CE429E5298C
:1003C800D1290130AE002D08A700A8012708A000F8
:1003D8002808A1000A30A2000030A3008331692355
:1003E800813198302000A9008230AA00200829070E
:1003F800AB0021082A3DAC002E082B0784002C08EE
:100408000318013E850000088331952381310130AE
:100418002000AE070A302E02031C132A142AE729EB
:1004280008002000A0003330200203181C2A1D2ACF
:10043800202A0830BA00562A5B3020020318252AE1
:10044800262A292A0730BA00562A7C3020020318A7
:100458002E2A2F2A322A0630BA00562A893020023C
:100468000318372A382A3B2AFF30BA00562A953013
:1004780020020318402A412A422A382AB63020028C
:100488000318472A482A4B2A0930BA00562ADE3070
:1004980020020318502A512A542A0A30BA00562A30
:1004A8000B30BA0008002000A000333020020318E7
:1004B8005E2A5F2A622A0530BB00972A5B30200239
:1004C8000318672A682A6B2A0430BB00972A7C30F5
:1004D80020020318702A712A742A0330BB00972A55
:1004E800893020020318792A7A2A7D2AFF30BB0036
:1004F800972A953020020318822A832A842A7A2A86
:10050800B63020020318892A8A2A8C2ABB01972A26
:10051800DE3020020318912A922A952A0130BB0066
:10052800972A0230BB00080000345A3401340034E2
:100538000034003401340034F334DB3401345A34E9
:10054800FF34003400340034013400342D34CD3409
:1005580002347C3400340034003400340034003475
:1005680070349F34033447344A341934B8348B34E4
:10057800003480343134533404346D34013403345A
:100588000034003400340034A034DB3405344734FC
:10059800FE3400340034003400340034ED340034C8
:1005A8002000B100310A031DDA2ADB2ADC2A062BD7
:1005B800B2013208AF00B0012F08A0003008A10036
:1005C8000730A2000030A300833169238231E23072
:1005D8002000200784000030213D80388500000875
:1005E8003106031DF82AF92AFE2A320881318721AB
:1005F8008231062B0130B2070C303202031C052B66
:10060800062BDD2A08002000B100310A031D0D2B3E
:100618000E2B0F2B392BB2013208AF00B0012F0877
:10062800A0003008A1000A30A2000030A3008331E6
:100638006923833198302000200784000230213D4F
:100648008038850000083106031D2B2B2C2B312BFD
:1006580032088131CE218331392B0130B20706307F
:100668003202031C382B392B102B08002000A00065
:10067800A01D3F2B402B432B0430B500452BFF30EA
:10068800B500A01C482B492B4C2B0230B6004E2B32
:10069800FF30B600201C512B522B552B0530B700CC
:1006A800572BFF30B700201E5A2B5B2B5E2B0130D7
:1006B800B900602BFF30B900A01E632B642B662B9A
:1006C800B801682BFF30B80008002000A401A5017C
:1006D800201C6F2B702B742B2208A4072308A53D20
:1006E8000130A235A30D890B752B0130A136A00C62
:1006F800890B7A2B20082104031D832B842B6C2B58
:100708002508A1002408A00008005534AA3407349D
:100718004D340034013400349834003447342034E4
:1007280000342000A60023009E1C9B2B9C2B972B9B
:100738002000260823009A0008002000A000201CA2
:10074800A62BA72BAA2B0330B400AC2BFF30B40088
:1007580008003F3021008D0023008D0124008D0109
:1007680026008D0127008D010800FF3021008C0034
:1007780023008C0124008C0126008C0127008C01A9
:100788000800243023009E0080309D0004309F0024
:100798008A309B009C010800BF3021008E00240095
:1007A8008E0126008E0127008E0108005534AA34D8
:1007B80007344D3400340134003498340034803028
:1007C80024009400263095009601443092000800D9
:1007D80040308B00083021009100920193010800FD
:1007E800F830210099002A009A01080022009D0192
:0A07F8009C01080021009501080093
:020000040001F9
:04000E00E409FF1CE6
:00000001FF
