:020000000528D1
:10000800A4292100F030990021001F3098002A000F
:1000180000309A0021001A1E0F281A1F11282100EB
:1000280095012500930125009A01260093012000DF
:1000380098013130980023008C0124008C012500A0
:100048008C0126008C012700FF308C002200FF3035
:100058008C00210000308C00200000308C00230030
:100068008D0124008D0125008D0126008D012700BA
:10007800FF308D0022008D012100FF308D0023000C
:100088008E0124008E0125008E0126008E01270096
:10009800FF308E0022008E012100FF308E002000EC
:1000A8008E150E168E17200040308B00210021304F
:1000B800910021000030920021001312210000302D
:1000C8009400230006309E00230090309D002300FA
:1000D8001908230008309F00230040309B002300AC
:1000E80003309C00220000309D000030F800F00032
:1000F800F100F200F300F5002000970020009600C0
:100108001030F40020008B178928F31F8928781CE9
:1001180089287810902089287508003A0319A129A0
:10012800F8189E287508243A031D0800F8142000C2
:100138000C1408007819A6287508473A031D08000A
:1001480078150800F819AE287508503A031D0800FC
:10015800F8150800781AB6287508473A031D0800EC
:1001680078160800F81ABE287508533A031D0800C7
:10017800F8160800781BC6287508413A031D0800C0
:1001880078170800F81BD02875082C3A031D0800BA
:10019800F81720000C100800701CF620F01C4221F3
:1001A800701D9421F01D99210800111000302000C5
:1001B8009700003020009600F40BAD291030F400B1
:1001C800F317AD2923009D18F0281D19F4282300E2
:1001D8001908F5007814AD291D121D161908AD2946
:1001E8001908AD29200075082C3A03199329F10A3A
:1001F8007108820708000C291029142918291C29BC
:100208002029242928292C293029342938293C292E
:1002180020007508A000932920007508A1009329E3
:1002280020007508A200932920007508A3009329CF
:1002380020007508A400932920007508A5009329BB
:1002480020007508A600932920007508A7009329A7
:1002580020007508A800932920007508A900932993
:1002680020007508AA00932920007508AB0093297F
:1002780020007508AC00F10170149329200075085E
:100288002C3A03199329F20A72088207080059299F
:100298005D296129652969296D29712975297929B6
:1002A8007D298129852989298D2920007508AD0096
:1002B800932920007508AE00932920007508AF0027
:1002C800932920007508B000932920007508B10013
:1002D800932920007508B200932920007508B300FF
:1002E800932920007508B400932920007508B500EB
:1002F800932920007508B600932920007508B700D7
:10030800932920007508B800932920007508B900C2
:10031800932920007508BA00F201F0149329080007
:1003280075080D3A03197015932975080A3A031DC3
:100338009329F001F801F3010800F001F801080021
:10034800F600030EF7002000911AE6281118D928A4
:0C035800AD29770E8300F60E760E09002A
:020000040001F9
:04000E00C40FFF1FFD
:00000001FF
