:020000000528D1
:10000800A4292100F030990021001F3098002A000F
:1000180000309A0021001A1E0F281A1F11282100EB
:1000280095012500930125009A01260093012000DF
:1000380098013130980023008C0124008C012500A0
:100048008C0126008C012700FF308C002200FF3035
:100058008C00210000308C00200000308C00230030
:100068008D0124008D0125008D0126008D012700BA
:10007800FF308D0022008D012100FF308D0023000C
:100088008E0124008E0125008E0126008E01270096
:10009800FF308E0022008E012100FF308E002000EC
:1000A8008E150E168E17200040308B00210021304F
:1000B800910021000030920021001312210000302D
:1000C8009400230006309E00230090309D002300FA
:1000D8001908230008309F00230040309B002300AC
:1000E80003309C00220000309D000030F800F00032
:1000F800F100F200F300F5002000970020009600C0
:100108001030F40020008B178928F31F8928781CE9
:1001180089287810902089287508003A0319A129A0
:10012800F8189E287508243A031D0800F8142000C2
:100138000C1408007819A6287508473A031D08000A
:1001480078150800F819AE287508503A031D0800FC
:10015800F8150800781AB6287508473A031D0800EC
:1001680078160800F81ABE287508533A031D0800C7
:10017800F8160800781BC6287508413A031D0800C0
:1001880078170800F81BCE2875082C3A031D0800BC
:10019800F8170800701CF420F01C4021701D9221F3
:1001A800F01D972108001110003020009700003042
:1001B80020009600F40BAD291030F400F317AD2998
:1001C80023009D18EE281D19F22823001908F500B0
:1001D8007814AD291D121D161908AD291908AD2965
:1001E800200075082C3A03199129F10A7108820731
:1001F80008000A290E29122916291A291E29222936
:1002080026292A292E29322936293A292000750833
:10021800A000912920007508A100912920007508E7
:10022800A200912920007508A300912920007508D3
:10023800A400912920007508A500912920007508BF
:10024800A600912920007508A700912920007508AB
:10025800A800912920007508A90091292000750897
:10026800AA00912920007508AB0091292000750883
:10027800AC00F10170149129200075082C3A03197B
:100288009129F20A72088207080057295B295F2919
:10029800632967296B296F29732977297B297F2986
:1002A800832987298B2920007508AD009129200012
:1002B8007508AE00912920007508AF00912920002B
:1002C8007508B000912920007508B1009129200017
:1002D8007508B200912920007508B3009129200003
:1002E8007508B400912920007508B50091292000EF
:1002F8007508B600912920007508B70091292000DB
:100308007508B800912920007508B90091292000C6
:100318007508BA00F201F0149129080075080D3A21
:1003280003197015912975080A3A031D9129F001DE
:10033800F801F30120000C100800F001F801080092
:10034800F600030EF7002000911AE4281118D728A8
:0C035800AD29770E8300F60E760E09002A
:020000040001F9
:04000E00C40FFF1FFD
:00000001FF
