:0400000080316728BC
:100008007E14803100308600003087002000911D6A
:100018000E280F2863282400151B132814281828D5
:10002800951F172818281D28151395131108F00176
:10003800632814192028212862287008031D252800
:10004800262829281108151651287003031D2D2864
:100058002E2832281108F300151651280230700690
:10006800031D372838283C281108F4001516512894
:1000780003307006031D4128422846281108F20063
:100088001516512804307006031D4B284C2851289A
:100098001108F1000130F50015120530F6000030A6
:1000A800F7007008013EF800003003180130F9002D
:1000B8008131992180317608F000632811082000E9
:1000C80091117E10090080316928F001F101F201D7
:1000D800F301F401F5012000B501B601B701B8013B
:1000E800B901BA01BB01BC01BD01BE01BF01C0011C
:1000F8007E1020008031E6282000B400B41D852839
:10010800862889280430BA008B28FF30BA00B41C2E
:100118008E288F2892280230BB009428FF30BB001D
:10012800341C972898289B280530BC009D28FF3050
:10013800BC00341EA028A128A6280130BE0001302A
:10014800B600B32836080319AA28AB28AF2806300A
:10015800833174238031FF302000BE00B601B41E05
:10016800B628B728BB28BD010130B500C828350816
:100178000319BF28C028C42806308331742380316E
:10018800FF302000BD00B501341DCB28CC28E42861
:100198003708031DD028D128E5280130B8070430D6
:1001A8003802031CD828D928DA28B80103303805C2
:1001B800B3000D08FC3933048D000130B700E52881
:1001C800B701080084313124803184313B248031E7
:1001D8008431372480318331EB2380318331DF232D
:1001E800803184310C2480318331F723803184318C
:1001F800162480318431292480318B17750803191E
:1002080006290729022973088331002380317408DD
:100218008231BE228031720880318020803171089D
:100228008331D3238031200040088331412380313A
:1002380020003F0883314123803120003C0883316E
:100248007423803120003A088331742380312000E0
:100258003B0883317423803120003D0883317423A7
:10026800803120003E088331742380312000390812
:10027800833174238031F501240015160229803159
:100288006728003400348034DD347F348B340B34F9
:1002980001340034803451347F344B346F340234A9
:1002A8000034803497347C34EA347C3403340034AA
:1002B800803423348034AB340B3404340034803439
:1002C800AF3480346B346F3405340034803469348F
:1002D8008334CA347C340634DD347F3400348034CB
:1002E800C7341834073451347F34003480345734D9
:1002F8003234083497347C3400348034DF34FE34AC
:10030800093423348034003480341F3419340A34D7
:10031800AF348034003480348F3433340B34693450
:100328008334003480340734FF34FB01F91F9D29DE
:100338009E29A529F809F909F80A0319F90A0130CB
:10034800FB00F71FA829A929AE29F609F709F60A1B
:100358000319F70A760877040319B329B429DB29A6
:100368000130FA00BE290130F635F70D890BB8299E
:100378000130FA07F71FC129C229B729770879027E
:10038800031DC82976087802031CCB29CC29D0295B
:100398007608F8027708F93B0130F736F60C890B36
:1003A800D1290130FA02031DDA29DB29C2297B0889
:1003B8000319DF29E029E529F809F909F80A0319D9
:1003C800F90A7908F7007808F60008002000AD005F
:1003D800AE012E08C73E840083300318013E850015
:1003E800000884310224813101302000AE070C302E
:1003F8002E02031C002A012AED290130AE002D0827
:10040800A700A8012708A0002808A1000730A2001B
:100418000030A3008331A723813145302000A90093
:100428008130AA0020082907AB0021082A3DAC002A
:100438002E082B0784002C080318013E85000008AD
:1004480084310224813101302000AE0707302E02AA
:10045800031C2F2A302A032A08002000AD00AE0111
:100468002E08203E840084300318013E85000008D1
:1004780084310224823101302000AE0709302E0277
:10048800031C472A482A342A0130AE002D08A70049
:10049800A8012708A0002808A1000A30A2000030FF
:1004A800A3008331A723823178302000A90082304D
:1004B800AA0020082907AB0021082A3DAC002E0815
:1004C8002B0784002C080318013E8500000884319E
:1004D8000224823101302000AE070A302E02031CAC
:1004E800762A772A4A2A080000345A34013400341C
:1004F8000034003401340034F334D83401345A342D
:10050800FF34003400340034013400342D34CD3449
:1005180002347C34003400340034003400340034B5
:1005280070349F34033447344A341934B8348B3424
:10053800003480343134533404346D34013403349A
:100548000034003400340034A034DB34053447343C
:10055800FE34003400340034003400346D34003488
:1005680006345A3400340034003400340034003483
:10057800B234D8342000A000333020020318C52A32
:10058800C62AC92A0B30BF00FF2A5B302002031895
:10059800CE2ACF2AD22A0A30BF00FF2A7C30200276
:1005A8000318D72AD82ADB2A0930BF00FF2A893046
:1005B80020020318E02AE12AE42AFF30BF00FF2ABC
:1005C800953020020318E92AEA2AEB2AE12AB630F4
:1005D80020020318F02AF12AF42A0630BF00FF2A65
:1005E800DE3020020318F92AFA2AFD2A0730BF0054
:1005F800FF2A0830BF0008002000A0003330200286
:100608000318072B082B0B2B0530C000402B5B3041
:1006180020020318102B112B142B0430C000402B80
:100628007C3020020318192B1A2B1D2B0330C00015
:10063800402B893020020318222B232B262BFF3036
:10064800C000402B9530200203182B2B2C2B2D2B70
:10065800232BB63020020318322B332B352BC00145
:10066800402BDE30200203183A2B3B2B3E2B013067
:10067800C000402B0230C00008002000B100310A41
:10068800031D472B482B492B732BB2013208AF00AF
:10069800B0012F08A0003008A1000730A2000030E8
:1006A800A3008331A723833145302000200784002D
:1006B8000130213D8038850000083106031D652B77
:1006C800662B6B2B32088131EA218331732B013081
:1006D800B2070C303202031C722B732B4A2B080012
:1006E8002000B100310A031D7A2B7B2B7C2BA62B13
:1006F800B2013208AF00B0012F08A0003008A100F5
:100708000A30A2000030A3008331A7238331783058
:100718002000200784000230213D80388500000831
:100728003106031D982B992B9E2B320882313122DA
:100738008331A62B0130B20707303202031CA52BE8
:10074800A62B7D2B08002000A401A501201CAD2BA1
:10075800AE2BB22B2208A4072308A53D0130A235F1
:10076800A30D890BB32B0130A136A00C890BB82B34
:1007780020082104031DC12BC22BAA2B2508A10088
:100788002408A00008005534AA3407344D34003436
:1007980001340034983400344734203400342000C5
:1007A800A000201CD82BD92BDC2B0330B900DE2B62
:1007B800FF30B90008003C3021008D0023008D0176
:1007C80024008D0126008D0127008D010800FF30CF
:1007D80021008C0023008C0124008C0126008C0150
:1007E80027008C010800243023009E0080309D00E3
:1007F80008309F008A309B009C0108002000A6005A
:10080800111E072C082C042C260823009A00080027
:10081800BF3021008E0024008E0126008E012700A3
:100828008E010800803024009400263095000130A5
:1008380096004430920008005534AA3407344D34E9
:100848000034013400349834003440308B000830D0
:1008580021009100920193010800F83021009900CD
:100868002A009A01080022009D019C01080021002D
:0408780095010800DE
:020000040001F9
:04000E00E409FF1CE6
:00000001FF
