:0400000080316728BC
:100008007E14803100308600003087002000911D6A
:100018000E280F2863282400151B132814281828D5
:10002800951F172818281D28151395131108F00176
:10003800632814192028212862287008031D252800
:10004800262829281108151651287003031D2D2864
:100058002E2832281108F300151651280230700690
:10006800031D372838283C281108F4001516512894
:1000780003307006031D4128422846281108F20063
:100088001516512804307006031D4B284C2851289A
:100098001108F1000130F50015120530F6000030A6
:1000A800F7007008013EF800003003180130F9002D
:1000B80081312F2180317608F00063281108200053
:1000C80091117E10090080316928F001F101F201D7
:1000D800F301F401F5012000B401B501B601B7013F
:1000E800B801B901BA01BB017E10200080317C281B
:1000F8008331F92380318431032480318331FF2314
:1001080080318331BD2380318331B1238031833104
:10011800D42380318331C92380318331DE23803178
:100128008331F12380318B17750803199C289D288A
:1001380098287308823150228031740882310E2247
:100148008031720883313323803171088331A523CC
:10015800803120003B088231CD22803120003A08CE
:100168008231CD228031200037088331002380314D
:100178002000350883310023803120003608833180
:10018800002380312000380883310023803120008B
:10019800390883310023803120003408833100235B
:1001A8008031F5012400151698288031672800341D
:1001B80000348034DD347F348B340B340134003424
:1001C800803451347F344B346F34023400348034FB
:1001D80097347C34EA347C34033400348034233458
:1001E8008034AB340B34043400348034AF3480347E
:1001F8006B346F3405340034803469348334CA3442
:100208007C340634DD347F3400348034C734183409
:10021800073451347F34003480345734323408344E
:1002280097347C3400348034DF34FE34093423348A
:100238008034003480341F3419340A34AF348034A5
:10024800003480348F3433340B34693483340034CD
:1002580080340734FF34FB01F91F332934293B2943
:10026800F809F909F80A0319F90A0130FB00F71F20
:100278003E293F294429F609F709F60A0319F70A1E
:1002880076087704031949294A2971290130FA00A7
:1002980054290130F635F70D890B4E290130FA073C
:1002A800F71F572958294D2977087902031D5E2918
:1002B80076087802031C6129622966297608F80203
:1002C8007708F93B0130F736F60C890B67290130BE
:1002D800FA02031D7029712958297B080319752909
:1002E80076297B29F809F909F80A0319F90A79081E
:1002F800F7007808F60008002000AE00AF012F08CC
:10030800993E840083300318013E8500000883313C
:100318008223813101302000AF070C302F02031CEB
:100328009629972983290130AF002E08A800A90132
:100338002808A0002908A1000730A2000030A30067
:10034800833162238131DB302000AA008030AB008A
:1003580020082A07AC0021082B3DAD002F082C07E8
:1003680084002D080318013E85000008833182238C
:10037800813101302000AF0707302F02031CC52947
:10038800C629992908002000AE00AF012F08E83ED1
:10039800840083300318013E8500000883318223DE
:1003A800813101302000AF0709302F02031CDD29FD
:1003B800DE29CA290130AF002E08A800A9012808A3
:1003C800A0002908A1000A30A2000030A300833150
:1003D8006223813191302000AA008230AB002008CE
:1003E8002A07AC0021082B3DAD002F082C078400FC
:1003F8002D080318013E85000008833182238131CE
:1004080001302000AF070A302F02031C0C2A0D2AE6
:10041800E02908002000A000333020020318152A24
:10042800162A192A0830BA004F2A5B30200203180E
:100438001E2A1F2A222A0730BA004F2A7C3020029F
:100448000318272A282A2B2A0630BA004F2A89306F
:1004580020020318302A312A342AFF30BA004F2AE2
:10046800953020020318392A3A2A3B2A312AB63015
:1004780020020318402A412A442A0930BA004F2A88
:10048800DE3020020318492A4A2A4D2A0A30BA00C7
:100498004F2A0B30BA0008002000A0003330200299
:1004A8000318572A582A5B2A0530BB00902A5B306C
:1004B80020020318602A612A642A0430BB00902AAB
:1004C8007C3020020318692A6A2A6D2A0330BB008F
:1004D800902A893020020318722A732A762AFF305C
:1004E800BB00902A9530200203187B2A7C2A7D2A9B
:1004F800732AB63020020318822A832A852ABB0170
:10050800902ADE30200203188A2A8B2A8E2A01308C
:10051800BB00902A0230BB00080000345A34013472
:1005280000340034003401340034F334D834013456
:100538005A34FF34003400340034013400342D348C
:10054800CD3402347C3400340034003400340034B8
:10055800003470349F34033447344A341934B8347F
:100568008B34003480343134533404346D340134E2
:1005780003340034003400340034A034DB34053450
:100588004734FE3400340034003400340034ED3491
:1005980000342000B200320A031DD32AD42AD52AF7
:1005A800FF2AB3013308B000B1013008A0003108B8
:1005B800A1000730A2000030A300833162238231FA
:1005C800DB302000200784000030213D8038850082
:1005D80000083206031DF12AF22AF72A330881316E
:1005E80080218231FF2A0130B3070C303302031C0B
:1005F800FE2AFF2AD62A08002000B200320A031D6C
:10060800062B072B082B322BB3013308B000B1019E
:100618003008A0003108A1000A30A2000030A30071
:100628008331622383319130200020078400023017
:10063800213D8038850000083206031D242B252B18
:100648002A2B33088131C7218331322B0130B3077C
:1006580006303302031C312B322B092B08002000F3
:10066800A000A01D382B392B3C2B0430B5003E2BA5
:10067800FF30B500A01C412B422B452B0230B600A1
:10068800472BFF30B600201C4A2B4B2B4E2B053036
:10069800B700502BFF30B700201E532B542B572B7D
:1006A8000130B900592BFF30B900A01E5C2B5D2B1F
:1006B8005F2BB801612BFF30B80008002000A401AF
:1006C800A501201C682B692B6D2B2208A407230881
:1006D800A53D0130A235A30D890B6E2B0130A13643
:1006E800A00C890B732B20082104031D7C2B7D2B68
:1006F800652B2508A1002408A00008002000A700F9
:100708000D0D0D0D0139A6000130A606A60CA60C8C
:100718000D0826067F3926068D00111E942B952B71
:10072800912B270823009A0008005534AA3407346F
:100738004D340034013400349834003447342034C4
:1007480000342000A000201CAA2BAB2BAE2B0330BA
:10075800B400B02BFF30B40008003F3021008D00FA
:1007680023008D0124008D0126008D0127008D01B5
:100778000800FF3021008C0023008C0124008C012C
:1007880026008C0127008C010800243023009E00DD
:1007980080309D0008309F008A309B009C01080033
:1007A800BF3021008E0024008E0126008E01270014
:1007B8008E01080080302400940026309500013016
:1007C80096004430920008005534AA3407344D345A
:1007D8000034013400349834003440308B00083041
:1007E80021009100920193010800F830210099003E
:1007F8002A009A01080022009D019C01080021009E
:04080800950108004E
:020000040001F9
:04000E00E409FF1CE6
:00000001FF
