:0400000080316928BA
:100008007E14803100308600003087002000911D6A
:100018000E280F2865282400151B132814281828D3
:10002800951F172818281D28151395131108F10175
:10003800652814192028212864287108031D2528FB
:10004800262829281108151653287103031D2D2861
:100058002E2832281108F30015165328023071068D
:10006800031D372838283C281108F4001516532892
:1000780003307106031D4128422846281108F20062
:100088001516532804307106031D4B284C28532895
:1000980011082000BC000130F500240015120530BD
:1000A800F6000030F7007108013EF8000030031830
:1000B8000130F9008131342180317608F10065285A
:1000C8001108200091117E10090080316B28F00181
:1000D800F101F201F301F401F5012000B301B401CB
:1000E800B501B601B701B801B901BA01BB01BC013C
:1000F8007E1020008031802884310E2480318431A4
:10010800182480318431142480318331C82380310C
:100118008331BC2380318331E92380318331D42377
:1001280080318331F32380318431062480318B1769
:1001380075080319A028A1289C2873088231A122D8
:100148008031740882315F228031720881318521C3
:10015800803120003C088331B023803120003B08E7
:1001680083311E23803120003A0883311E238031D9
:10017800200037088331512380312000350883312E
:1001880051238031200036088331512380312000EB
:1001980038088331512380312000390883315123B5
:1001A800803120003408833151238031F501240047
:1001B80015169C2880316928003400348034DD34D9
:1001C8007F348B340B3401340034803451347F3421
:1001D8004B346F3402340034803497347C34EA343E
:1001E8007C3403340034803423348034AB340B340F
:1001F800043400348034AF3480346B346F340534C5
:100208000034803469348334CA347C340634DD34B1
:100218007F3400348034C7341834073451347F3481
:100228000034803457343234083497347C34003402
:100238008034DF34FE34093423348034003480348D
:100248001F3419340A34AF348034003480348F3486
:1002580033340B3469348334003480340734FF3446
:10026800FB01F91F382939294029F809F909F80A41
:100278000319F90A0130FB00F71F432944294929CA
:10028800F609F709F60A0319F70A76087704031935
:100298004E294F2976290130FA0059290130F635BF
:1002A800F70D890B53290130FA07F71F5C295D29DF
:1002B800522977087902031D632976087802031CFE
:1002C800662967296B297608F8027708F93B013017
:1002D800F736F60C890B6C290130FA02031D7529D3
:1002E80076295D297B0803197A297B298029F80951
:1002F800F909F80A0319F90A7908F7007808F600E5
:1003080008002000A100A11D8A298B298E2904300C
:10031800B5009029FF30B500A11C9329942997298D
:100328000230B6009929FF30B600211C9C299D296E
:10033800A0290530B700A229FF30B700211EA52942
:10034800A629A9290130B900AB29FF30B900A11E9F
:10035800AE29AF29B129B801B329FF30B800211D52
:10036800B629B729CF293308031DBB29BC29D029B1
:100378000130F00704307002031CC329C429C529C1
:10038800F00103307005A0000D08FC3920048D0031
:100398000130B300D029B30108002000AD00AE0140
:1003A8002E08A43E840083300318013E850000080F
:1003B8008331DF23813101302000AE070C302E025B
:1003C800031CE729E829D4290130AE002D08A7002D
:1003D800A8012708A0002808A1000730A2000030C3
:1003E800A300833184238131E0302000A9008030CC
:1003F800AA0020082907AB0021082A3DAC002E08D6
:100408002B0784002C080318013E8500000883315F
:10041800DF23813101302000AE0707302E02031C94
:10042800162A172AEA2908002000AD00AE012E0876
:10043800FD3E840083300318013E850000088331A7
:10044800DF23823101302000AE0709302E02031C61
:100458002E2A2F2A1B2A0130AE002D08A700A8013A
:100468002708A0002808A1000A30A2000030A30035
:10047800833184238231E2302000A9008230AA002F
:1004880020082907AB0021082A3DAC002E082B07BD
:1004980084002C080318013E850000088331DF23FF
:1004A800823101302000AE070A302E02031C5D2A7B
:1004B8005E2A312A08002000A000333020020318E9
:1004C800662A672A6A2A0830BA00A02A5B30200206
:1004D80003186F2A702A732A0730BA00A02A7C30C2
:1004E80020020318782A792A7C2A0630BA00A02A22
:1004F800893020020318812A822A852AFF30BA000F
:10050800A02A9530200203188A2A8B2A8C2A822A4C
:10051800B63020020318912A922A952A0930BA0087
:10052800A02ADE30200203189A2A9B2A9E2A0A3023
:10053800BA00A02A0B30BA0008002000A00033300F
:1005480020020318A82AA92AAC2A0530BB00E12AF0
:100558005B3020020318B12AB22AB52A0430BB0046
:10056800E12A7C3020020318BA2ABB2ABE2A0330AB
:10057800BB00E12A893020020318C32AC42AC72AEB
:10058800FF30BB00E12A953020020318CC2ACD2A7F
:10059800CE2AC42AB63020020318D32AD42AD62A4F
:1005A800BB01E12ADE3020020318DB2ADC2ADF2A1D
:1005B8000130BB00E12A0230BB00080000345A3485
:1005C800013400340034003401340034F334D834B6
:1005D80001345A34FF340034003400340134003418
:1005E8002D34CD3402347C340034003400340034EB
:1005F8000034003470349F34033447344A34193497
:10060800B8348B34003480343134533404346D348A
:10061800013403340034003400340034A034DB34B3
:1006280005344734FE3400340034003400340034D8
:10063800ED3400342000B100310A031D242B252B92
:10064800262B502BB2013208AF00B0012F08A000B2
:100658003008A1000730A2000030A30083318423B2
:100668008331E0302000200784000030213D8038AD
:10067800850000083106031D422B432B482B320806
:100688008131D1218331502B0130B2070C30320235
:10069800031C4F2B502B272B08002000B100310AD8
:1006A800031D572B582B592B832BB2013208AF004F
:1006B800B0012F08A0003008A1000A30A2000030C5
:1006C800A300833184238331E23020002007840093
:1006D8000230213D8038850000083106031D752B46
:1006E800762B7B2B3208823118228331832B013001
:1006F800B20706303202031C822B832B5A2B0800C8
:100708002000A401A501201C8A2B8B2B8F2B2208EB
:10071800A4072308A53D0130A235A30D890B902B12
:100728000130A136A00C890B952B20082104031D4C
:100738009E2B9F2B872B2508A1002408A0000800CA
:100748005534AA3407344D34003401340034983415
:1007580000344734203400342000A000201CB52B7E
:10076800B62BB92B0330B400BB2BFF30B400080004
:100778003C3021008D0023008D0124008D012600CE
:100788008D0127008D010800FF3021008C00230017
:100798008C0124008C0126008C0127008C010800A4
:1007A800243023009E0080309D0008309F008A304E
:1007B8009B009C0108002000A600111EE42BE52BDD
:1007C800E12B260823009A000800BF3021008E0084
:1007D80024008E0126008E0127008E01080080303B
:1007E8002400940026309500013096004430920091
:1007F80008005534AA3407344D3400340134003429
:100808009834003440308B00083021009100920168
:1008180093010800F830210099002A009A01080085
:0E08280022009D019C0108002100950108009E
:020000040001F9
:04000E00E409FF1CE6
:00000001FF
