:0400000080316728BC
:100008007E14803100308600003087002000911D6A
:100018000E280F2863282400151B132814281828D5
:10002800951F172818281D28151395131108F00176
:10003800632814192028212862287008031D252800
:10004800262829281108151651287003031D2D2864
:100058002E2832281108F300151651280230700690
:10006800031D372838283C281108F4001516512894
:1000780003307006031D4128422846281108F20063
:100088001516512804307006031D4B284C2851289A
:100098001108F1000130F50015120530F6000030A6
:1000A800F7007008013EF800003003180130F9002D
:1000B8008131982180317608F000632811082000EA
:1000C80091117E10090080316928F001F101F201D7
:1000D800F301F401F5012000B501B601B701B8013B
:1000E800B901BA01BB01BC01BD01BE01BF01C0011C
:1000F8007E1020008031E5282000B400B41D85283A
:10010800862889280430BA008B28FF30BA00B41C2E
:100118008E288F2892280230BB009428FF30BB001D
:10012800341C972898289B280330BC009D28FF3052
:10013800BC00B41EA028A128A528BE010130B60025
:10014800B22836080319A928AA28AE280630833110
:1001580073238031FF302000BE00B601B41EB528DD
:10016800B628BA28BD010130B500C72835080319DB
:10017800BE28BF28C3280630833173238031FF305F
:100188002000BD00B501341DCA28CB28E328370854
:10019800031DCF28D028E4280130B80704303802DE
:1001A800031CD728D828D928B80103303805B3004C
:1001B8000D08FC3933048D000130B700E428B7017D
:1001C800080084313024803184313A2480318431EC
:1001D800362480318331EA2380318331DE23803134
:1001E80084310B2480318331F62380318431152406
:1001F80080318431282480318B177508031905292B
:100208000629012973088231FF228031740882315E
:10021800BD2280317208803180208031710883319D
:10022800D2238031200040088331402380312000D0
:100238003F0883314023803120003C0883317323F9
:10024800803120003A0883317323803120003B0835
:1002580083317323803120003D088331732380313B
:1002680020003E0883317323803120003908833110
:1002780073238031F5012400151601298031672880
:10028800003400348034DD347F348B340B34013453
:100298000034803451347F344B346F3402340034AA
:1002A800803497347C34EA347C340334003480342A
:1002B80023348034AB340B34043400348034AF340A
:1002C80080346B346F3405340034803469348334BB
:1002D800CA347C340634DD347F3400348034C73487
:1002E8001834073451347F3400348034573432346E
:1002F800083497347C3400348034DF34FE340934D5
:1003080023348034003480341F3419340A34AF3431
:100318008034003480348F3433340B34693483347C
:10032800003480340734FF34FB01F91F9C299D29D0
:10033800A429F809F909F80A0319F90A0130FB0098
:10034800F71FA729A829AD29F609F709F60A0319FD
:10035800F70A760877040319B229B329DA29013094
:10036800FA00BD290130F635F70D890BB7290130A0
:10037800FA07F71FC029C129B62977087902031D92
:10038800C72976087802031CCA29CB29CF29760801
:10039800F8027708F93B0130F736F60C890BD029BB
:1003A8000130FA02031DD929DA29C1297B0803196A
:1003B800DE29DF29E429F809F909F80A0319F90AF5
:1003C8007908F7007808F60008002000AD00AE01B3
:1003D8002E08C63E840083300318013E85000008BD
:1003E80084310124813101302000AE070C302E0207
:1003F800031CFF29002AEC290130AE002D08A700B4
:10040800A8012708A0002808A1000730A200003092
:10041800A3008331A623813144302000A900813014
:10042800AA0020082907AB0021082A3DAC002E08A5
:100438002B0784002C080318013E8500000884312E
:100448000124813101302000AE0707302E02031C41
:100458002E2A2F2A022A08002000AD00AE012E08FD
:100468001F3E840084300318013E85000008843153
:100478000124823101302000AE0709302E02031C0E
:10048800462A472A332A0130AE002D08A700A801C2
:100498002708A0002808A1000A30A2000030A30005
:1004A8008331A623823177302000A9008230AA0048
:1004B80020082907AB0021082A3DAC002E082B078D
:1004C80084002C080318013E8500000884310124AB
:1004D800823101302000AE070A302E02031C752A33
:1004E800762A492A080000345A340134003400348A
:1004F800003401340034F334D83401345A34FF342E
:10050800003400340034013400342D34CD34023446
:100518007C34003400340034003400340034703447
:100528009F34033447344A341934B8348B34003494
:1005380080343134533404346D340134033400349A
:10054800003400340034A034DB3405344734FE343E
:1005580000340034003400340034ED340034063400
:100568005A34003400340034003400340034B234D7
:10057800D8342000A000333020020318C42AC52A2A
:10058800C82A0830BF00FE2A5B3020020318CD2A93
:10059800CE2AD12A0730BF00FE2A7C302002031859
:1005A800D62AD72ADA2A0630BF00FE2A8930200246
:1005B8000318DF2AE02AE32AFF30BF00FE2A95301D
:1005C80020020318E82AE92AEA2AE02AB63020029B
:1005D8000318EF2AF02AF32A0930BF00FE2ADE307A
:1005E80020020318F82AF92AFC2A0A30BF00FE2A3A
:1005F8000B30BF0008002000A00033302002031891
:10060800062B072B0A2B0530C0003F2B5B3020023E
:1006180003180F2B102B132B0430C0003F2B7C30FA
:1006280020020318182B192B1C2B0330C0003F2B5A
:10063800893020020318212B222B252BFF30C000E4
:100648003F2B9530200203182A2B2B2B2C2B222BE7
:10065800B63020020318312B322B342BC0013F2B2C
:10066800DE3020020318392B3A2B3D2B0130C00015
:100678003F2B0230C00008002000B100310A031DE2
:10068800462B472B482B722BB2013208AF00B00122
:100698002F08A0003008A1000730A2000030A300F6
:1006A8008331A623833144302000200784000130A1
:1006B800213D8038850000083106031D642B652B19
:1006C8006A2B32088131E9218331722B0130B2075C
:1006D8000C303202031C712B722B492B08002000AE
:1006E800B100310A031D792B7A2B7B2BA52BB20184
:1006F8003208AF00B0012F08A0003008A1000A306E
:10070800A2000030A3008331A62383317730200074
:10071800200784000230213D80388500000831061A
:10072800031D972B982B9D2B320882313022833161
:10073800A52B0130B20707303202031CA42BA52BCE
:100748007C2B08002000A401A501201CAC2BAD2B9C
:10075800B12B2208A4072308A53D0130A235A30D1B
:10076800890BB22B0130A136A00C890BB72B2008BE
:100778002104031DC02BC12BA92B2508A100240887
:10078800A00008005534AA3407344D34003401342D
:100798000034983400344734203400342000A0005A
:1007A800201CD72BD82BDB2B0330B900DD2BFF30D7
:1007B800B90008003C3021008D0023008D01240081
:1007C8008D0126008D0127008D010800FF302100D2
:1007D8008C0023008C0124008C0126008C0127004A
:1007E8008C010800243023009E0080309D000830D2
:1007F8009F008A309B009C0108002000A600111E63
:10080800062C072C032C260823009A000800BF306A
:1008180021008E0024008E0126008E0127008E0103
:10082800080080302400940026309500013096009E
:100838004430920008005534AA3407344D3400344B
:10084800013400349834003440308B0008302100E3
:100858009100920193010800F830210099002A00C4
:100868009A01080022009D019C01080021009501C1
:02087800080076
:020000040001F9
:04000E00E409FF1CE6
:00000001FF
